:020000040000fa
:080000000002040000000000f2
:020000040000fa
:04000800f4020000fe
:020000040000fa
:04000c00dc02000012
:020000040000fa
:04001000e202000008
:020000040000fa
:04001400e8020000fe
:020000040000fa
:04001800ee020000f4
:020000040000fa
:04001c00f4020000ea
:020000040000fa
:04002000f4020000e6
:020000040000fa
:04002400f4020000e2
:020000040000fa
:04002800f4020000de
:020000040000fa
:04002c00f4020000da
:020000040000fa
:04003000f4020000d6
:020000040000fa
:04003400c8020000fe
:020000040000fa
:04003800f4020000ce
:020000040000fa
:04003c00f4020000ca
:020000040000fa
:04004000f4020000c6
:020000040000fa
:04004400f4020000c2
:020000040000fa
:04004800f4020000be
:020000040000fa
:04004c00f4020000ba
:020000040000fa
:04005000f4020000b6
:020000040000fa
:04005400f4020000b2
:020000040000fa
:04005800f4020000ae
:020000040000fa
:04005c00f4020000aa
:020000040000fa
:04006000f4020000a6
:020000040000fa
:04006400f4020000a2
:020000040000fa
:04006800f40200009e
:020000040000fa
:04006c00f40200009a
:020000040000fa
:04007000f402000096
:020000040000fa
:04007400f402000092
:020000040000fa
:04007800f40200008e
:020000040000fa
:04007c00f40200008a
:020000040000fa
:04008000f402000086
:020000040000fa
:04008400f402000082
:020000040000fa
:04008800f40200007e
:020000040000fa
:04008c00f40200007a
:020000040000fa
:04009000f402000076
:020000040000fa
:04009400f402000072
:020000040000fa
:04009800f40200006e
:020000040000fa
:04009c00f40200006a
:020000040000fa
:0400a000f402000066
:020000040000fa
:0400a400f402000062
:020000040000fa
:0400a800f40200005e
:020000040000fa
:0400ac00f40200005a
:020000040000fa
:0400b000f402000056
:020000040000fa
:0400b400f402000052
:020000040000fa
:0400b800f40200004e
:020000040000fa
:0400bc00f40200004a
:020000040000fa
:0400c000f402000046
:020000040000fa
:0400c400f402000042
:020000040000fa
:0400c800f40200003e
:020000040000fa
:0400cc00f40200003a
:020000040000fa
:0400d000f402000036
:020000040000fa
:0400d400f402000032
:020000040000fa
:0400d800f40200002e
:020000040000fa
:0400dc00f40200002a
:020000040000fa
:0400e000f402000026
:020000040000fa
:0400e400f402000022
:020000040000fa
:0400e800f40200001e
:020000040000fa
:0400ec00f40200001a
:020000040000fa
:0400f000f402000016
:020000040000fa
:0400f400f402000012
:020000040000fa
:0400f800f40200000e
:020000040000fa
:0400fc00f40200000a
:020000040000fa
:04010000f402000005
:020000040000fa
:04010400f402000001
:020000040000fa
:04010800f4020000fd
:020000040000fa
:04010c00f4020000f9
:020000040000fa
:04011000f4020000f5
:020000040000fa
:04011400f4020000f1
:020000040000fa
:04011800f4020000ed
:020000040000fa
:04011c00f4020000e9
:020000040000fa
:04012000f4020000e5
:020000040000fa
:04012400f4020000e1
:020000040000fa
:04012800f4020000dd
:020000040000fa
:04012c00f4020000d9
:020000040000fa
:04013000f4020000d5
:020000040000fa
:04013400f4020000d1
:020000040000fa
:04013800f4020000cd
:020000040000fa
:04013c00f4020000c9
:020000040000fa
:04014000f4020000c5
:020000040000fa
:04014400f4020000c1
:020000040000fa
:04014800f4020000bd
:020000040000fa
:04014c00f4020000b9
:020000040000fa
:04015000f4020000b5
:020000040000fa
:04015400f4020000b1
:020000040000fa
:04015800f4020000ad
:020000040000fa
:04015c00f4020000a9
:020000040000fa
:04016000f4020000a5
:020000040000fa
:04016400f4020000a1
:020000040000fa
:04016800f40200009d
:020000040000fa
:04016c00f402000099
:020000040000fa
:04017000f402000095
:020000040000fa
:04017400f402000091
:020000040000fa
:04017800f40200008d
:020000040000fa
:04017c00f402000089
:020000040000fa
:04018000f402000085
:020000040000fa
:04018400f402000081
:020000040000fa
:04018800f40200007d
:020000040000fa
:04018c00f402000079
:020000040000fa
:04019000f402000075
:020000040000fa
:04019400f402000071
:020000040000fa
:04019800f40200006d
:020000040000fa
:04019c00f402000069
:020000040000fa
:0401a000f402000065
:020000040000fa
:0401a400f402000061
:020000040000fa
:0401a800f40200005d
:020000040000fa
:0401ac00f402000059
:020000040000fa
:04020800f4020000fc
:020000040000fa
:04020c00dc02000010
:020000040000fa
:04021000e202000006
:020000040000fa
:04021400e8020000fc
:020000040000fa
:04021800ee020000f2
:020000040000fa
:04021c00f4020000e8
:020000040000fa
:04022000f4020000e4
:020000040000fa
:04022400f4020000e0
:020000040000fa
:04022800f4020000dc
:020000040000fa
:04022c00f4020000d8
:020000040000fa
:04023000f4020000d4
:020000040000fa
:04023400c8020000fc
:020000040000fa
:04023800f4020000cc
:020000040000fa
:04023c00f4020000c8
:020000040000fa
:04024000f4020000c4
:020000040000fa
:04024400f4020000c0
:020000040000fa
:04024800f4020000bc
:020000040000fa
:04024c00f4020000b8
:020000040000fa
:04025000f4020000b4
:020000040000fa
:04025400f4020000b0
:020000040000fa
:04025800f4020000ac
:020000040000fa
:04025c00f4020000a8
:020000040000fa
:04026000f4020000a4
:020000040000fa
:04026400f4020000a0
:020000040000fa
:04026800f40200009c
:020000040000fa
:04026c00f402000098
:020000040000fa
:04027000f402000094
:020000040000fa
:04027400f402000090
:020000040000fa
:04027800f40200008c
:020000040000fa
:04027c00f402000088
:020000040000fa
:04028000f402000084
:020000040000fa
:04028400f402000080
:020000040000fa
:04028800f40200007c
:020000040000fa
:04028c00f402000078
:020000040000fa
:04029000f402000074
:020000040000fa
:04029400f402000070
:020000040000fa
:04029800f40200006c
:020000040000fa
:04029c00f402000068
:020000040000fa
:0402a000f402000064
:020000040000fa
:0402a400f402000060
:020000040000fa
:0402a800f40200005c
:020000040000fa
:0402ac00f402000058
:020000040000fa
:0402b000f402000054
:020000040000fa
:0402b400f402000050
:020000040000fa
:0402b800f40200004c
:020000040000fa
:0402bc00f402000048
:020000040000fa
:0402c000f402000044
:020000040000fa
:0402c400f402000040
:020000040000fa
:0402c800f40200003c
:020000040000fa
:0402cc00f402000038
:020000040000fa
:0402d000f402000034
:020000040000fa
:0402d400f402000030
:020000040000fa
:0402d800f40200002c
:020000040000fa
:0402dc00f402000028
:020000040000fa
:0402e000f402000024
:020000040000fa
:0402e400f402000020
:020000040000fa
:0402e800f40200001c
:020000040000fa
:0402ec00f402000018
:020000040000fa
:0402f000f402000014
:020000040000fa
:0402f400f402000010
:020000040000fa
:0402f800f40200000c
:020000040000fa
:0402fc00f402000008
:020000040000fa
:04030000f402000003
:020000040000fa
:04030400f4020000ff
:020000040000fa
:04030800f4020000fb
:020000040000fa
:04030c00f4020000f7
:020000040000fa
:04031000f4020000f3
:020000040000fa
:04031400f4020000ef
:020000040000fa
:04031800f4020000eb
:020000040000fa
:04031c00f4020000e7
:020000040000fa
:04032000f4020000e3
:020000040000fa
:04032400f4020000df
:020000040000fa
:04032800f4020000db
:020000040000fa
:04032c00f4020000d7
:020000040000fa
:04033000f4020000d3
:020000040000fa
:04033400f4020000cf
:020000040000fa
:04033800f4020000cb
:020000040000fa
:04033c00f4020000c7
:020000040000fa
:04034000f4020000c3
:020000040000fa
:04034400f4020000bf
:020000040000fa
:04034800f4020000bb
:020000040000fa
:04034c00f4020000b7
:020000040000fa
:04035000f4020000b3
:020000040000fa
:04035400f4020000af
:020000040000fa
:04035800f4020000ab
:020000040000fa
:04035c00f4020000a7
:020000040000fa
:04036000f4020000a3
:020000040000fa
:04036400f40200009f
:020000040000fa
:04036800f40200009b
:020000040000fa
:04036c00f402000097
:020000040000fa
:04037000f402000093
:020000040000fa
:04037400f40200008f
:020000040000fa
:04037800f40200008b
:020000040000fa
:04037c00f402000087
:020000040000fa
:04038000f402000083
:020000040000fa
:04038400f40200007f
:020000040000fa
:04038800f40200007b
:020000040000fa
:04038c00f402000077
:020000040000fa
:04039000f402000073
:020000040000fa
:04039400f40200006f
:020000040000fa
:04039800f40200006b
:020000040000fa
:04039c00f402000067
:020000040000fa
:0403a000f402000063
:020000040000fa
:0403a400f40200005f
:020000040000fa
:0403a800f40200005b
:020000040000fa
:0403ac00f402000057
:020000040000fa
:100400000f8020000eff20000e0188000000000079
:10041000000020000000e000020032000001200087
:100420002002880014000700710007000000e000af
:1004300003003a0000002000010020000200370005
:100440000000200001002000810f70000100320038
:1004500014000700000020000000e000020032004d
:100460000000020000000000fa020200000000008c
:100470000040da000000fe004440a9000000200017
:100480000000e0000300320000002000a00188000e
:100490004440a800000006008a1f78008b1f7800e7
:1004a0000000060091018800800478000000eb0045
:1004b0001a003700e284440032a0b4009905ba0063
:1004c000e284440032a0b4009906ba00e2844400f9
:1004d00032a0b4000006eb00476fde00fd07b2005b
:1004e000636ce10003003a00ebff07000000eb0043
:1004f0000a003700606ce10004003a00005deb0088
:100500008b05e900fdff3e00040037006168e10053
:10051000010032000086eb000b00070019c7ba008b
:100520001905ba000e04e00003003a000a00e000da
:10053000e0ff3a0000000600fe07b2009e018800be
:100540008a047800f5ff3700395dba008b05e900b1
:100550000c003200295dba008b05e900080032006a
:100560000c00e00003003a00e284440032a0b40032
:10057000f5ff370019ddba008b05e900faff3a00f4
:100580008904e800e184440032a0b40000000600c1
:100590003400f800881f780008002000a8018800b7
:1005a0004f0478000000fa008460a9000080fa007f
:1005b0003400f900004006000000fa008020a90085
:1005c000ffff37000000fa008060a900ffff37003e
:1005d0000000fa008040a900ffff37000000fa0089
:1005e0008080a900ffff37000000fa00ffff3700fe
:0405f0000000050002
:020000040000fa
:1005f4000000fa0035000700370007001600070066
:10060400c982a9005116800000002100008060000a
:100614000000e00002003a00cb82a900feff370090
:100624000000eb000080fa00000006000400fa005d
:10063400100798009e00900000fa20000088b9007e
:1006440000007800000f78001e00780011000700f9
:100654000080fa00000006000000fa000421ef0008
:100664000021ef000080eb001008880021058000c5
:10067400f0ff28000080600000c0a0002005880072
:100684008460a9009460a80005e1a8000080fa0035
:04069400000006005c
:020000040000fa
:10069800f03fb1000180b10006003500ee0309000b
:1006a80000000000403fb1000180b100fbff3d00a9
:1006b8001000b000203fb0000200350000800900a3
:0806c800000000000000060024
:020000040000fa
:1006d0000000fa000080fa00000006000000fa00a6
:0806e0000080fa000000060092
:00000001FF
